{
  "contractName": "ASK",
  "abi": [
    {
      "anonymous": false,
      "inputs": [
        {
          "indexed": true,
          "internalType": "address",
          "name": "questioner",
          "type": "address"
        },
        {
          "indexed": true,
          "internalType": "uint256",
          "name": "questionID",
          "type": "uint256"
        }
      ],
      "name": "QuestionCreated",
      "type": "event"
    },
    {
      "inputs": [
        {
          "internalType": "uint256",
          "name": "",
          "type": "uint256"
        }
      ],
      "name": "questions",
      "outputs": [
        {
          "internalType": "address",
          "name": "questioner",
          "type": "address"
        },
        {
          "internalType": "uint256",
          "name": "incentive",
          "type": "uint256"
        },
        {
          "internalType": "bytes",
          "name": "contents",
          "type": "bytes"
        }
      ],
      "stateMutability": "view",
      "type": "function"
    },
    {
      "inputs": [
        {
          "internalType": "uint256",
          "name": "_incentive",
          "type": "uint256"
        },
        {
          "internalType": "bytes",
          "name": "_meta",
          "type": "bytes"
        }
      ],
      "name": "createQuestion",
      "outputs": [
        {
          "internalType": "uint256",
          "name": "",
          "type": "uint256"
        }
      ],
      "stateMutability": "nonpayable",
      "type": "function"
    },
    {
      "inputs": [],
      "name": "getQuestionCount",
      "outputs": [
        {
          "internalType": "uint256",
          "name": "",
          "type": "uint256"
        }
      ],
      "stateMutability": "view",
      "type": "function"
    }
  ],
  "bytecode": "0x608060405234801561001057600080fd5b506107cc806100206000396000f3fe608060405234801561001057600080fd5b50600436106100415760003560e01c806331b1b9781461004657806364ce77cc14610078578063dd41cc2f146100a8575b600080fd5b610060600480360381019061005b91906103d2565b6100c6565b60405161006f939291906104e8565b60405180910390f35b610092600480360381019061008d919061065b565b6101a8565b60405161009f91906106b7565b60405180910390f35b6100b06102d9565b6040516100bd91906106b7565b60405180910390f35b600081815481106100d657600080fd5b90600052602060002090600302016000915090508060000160009054906101000a900473ffffffffffffffffffffffffffffffffffffffff169080600101549080600201805461012590610701565b80601f016020809104026020016040519081016040528092919081815260200182805461015190610701565b801561019e5780601f106101735761010080835404028352916020019161019e565b820191906000526020600020905b81548152906001019060200180831161018157829003601f168201915b5050505050905083565b60008060405180606001604052803373ffffffffffffffffffffffffffffffffffffffff16815260200185815260200184815250908060018154018082558091505060019003906000526020600020906003020160009091909190915060008201518160000160006101000a81548173ffffffffffffffffffffffffffffffffffffffff021916908373ffffffffffffffffffffffffffffffffffffffff1602179055506020820151816001015560408201518160020190805190602001906102729291906102e5565b505050600060016000805490506102899190610762565b9050803373ffffffffffffffffffffffffffffffffffffffff167ff027b0a3af9e2163afcedff8800bfbdc924bb64582a3d8b58d26559aaa18979560405160405180910390a38091505092915050565b60008080549050905090565b8280546102f190610701565b90600052602060002090601f016020900481019282610313576000855561035a565b82601f1061032c57805160ff191683800117855561035a565b8280016001018555821561035a579182015b8281111561035957825182559160200191906001019061033e565b5b509050610367919061036b565b5090565b5b8082111561038457600081600090555060010161036c565b5090565b6000604051905090565b600080fd5b600080fd5b6000819050919050565b6103af8161039c565b81146103ba57600080fd5b50565b6000813590506103cc816103a6565b92915050565b6000602082840312156103e8576103e7610392565b5b60006103f6848285016103bd565b91505092915050565b600073ffffffffffffffffffffffffffffffffffffffff82169050919050565b600061042a826103ff565b9050919050565b61043a8161041f565b82525050565b6104498161039c565b82525050565b600081519050919050565b600082825260208201905092915050565b60005b8381101561048957808201518184015260208101905061046e565b83811115610498576000848401525b50505050565b6000601f19601f8301169050919050565b60006104ba8261044f565b6104c4818561045a565b93506104d481856020860161046b565b6104dd8161049e565b840191505092915050565b60006060820190506104fd6000830186610431565b61050a6020830185610440565b818103604083015261051c81846104af565b9050949350505050565b600080fd5b600080fd5b7f4e487b7100000000000000000000000000000000000000000000000000000000600052604160045260246000fd5b6105688261049e565b810181811067ffffffffffffffff8211171561058757610586610530565b5b80604052505050565b600061059a610388565b90506105a6828261055f565b919050565b600067ffffffffffffffff8211156105c6576105c5610530565b5b6105cf8261049e565b9050602081019050919050565b82818337600083830152505050565b60006105fe6105f9846105ab565b610590565b90508281526020810184848401111561061a5761061961052b565b5b6106258482856105dc565b509392505050565b600082601f83011261064257610641610526565b5b81356106528482602086016105eb565b91505092915050565b6000806040838503121561067257610671610392565b5b6000610680858286016103bd565b925050602083013567ffffffffffffffff8111156106a1576106a0610397565b5b6106ad8582860161062d565b9150509250929050565b60006020820190506106cc6000830184610440565b92915050565b7f4e487b7100000000000000000000000000000000000000000000000000000000600052602260045260246000fd5b6000600282049050600182168061071957607f821691505b6020821081141561072d5761072c6106d2565b5b50919050565b7f4e487b7100000000000000000000000000000000000000000000000000000000600052601160045260246000fd5b600061076d8261039c565b91506107788361039c565b92508282101561078b5761078a610733565b5b82820390509291505056fea2646970667358221220c6ff32fe321c0244c452865abe4632040dba8337ee4e19de95036f5cd3ef2ff164736f6c63430008090033",
  "immutableReferences": {},
  "source": "contract ASK {\n\n  /* a question on the exchange */\n  struct Question {\n    // questioner address\n    address questioner;\n    // incentive price\n    uint256 incentive;\n    // contents\n    bytes contents;\n  }\n\n  Question[] public questions;\n\n  /**\n   * @dev Emitted when question is created\n   */\n  event QuestionCreated(address indexed questioner, uint256 indexed questionID);\n\n  /**\n   * @dev create question from questioner with incentive and contents metadata\n   * @param _incentive  incentive for best answer\n   * @param _meta contents metadata\n   */\n\n  function createQuestion(uint256 _incentive, bytes memory _meta)\n    public\n    returns (uint256)\n  {\n      questions.push(\n            Question({\n                questioner: msg.sender,\n                incentive: _incentive,\n                contents: _meta\n            })\n        );\n    uint256 questionID = questions.length - 1;\n\n    emit QuestionCreated(msg.sender, questionID);\n\n    return questionID;\n  }\n\n  function getQuestionCount() public view returns(uint256) {\n    return questions.length;\n  }\n}\n",
  "sourcePath": "/Users/shunsukenagashima/personal_prj/ask-contract/contracts/ASKV1.sol",
  "compiler": {
    "name": "solc",
    "version": "0.8.9+commit.e5eed63a.Emscripten.clang"
  },
  "schemaVersion": "3.4.3",
  "updatedAt": "2021-12-04T18:32:01.914Z",
  "devdoc": {
    "events": {
      "QuestionCreated(address,uint256)": {
        "details": "Emitted when question is created"
      }
    },
    "kind": "dev",
    "methods": {
      "createQuestion(uint256,bytes)": {
        "details": "create question from questioner with incentive and contents metadata",
        "params": {
          "_incentive": "incentive for best answer",
          "_meta": "contents metadata"
        }
      }
    },
    "version": 1
  },
  "userdoc": {
    "kind": "user",
    "methods": {},
    "version": 1
  }
}